:03000000020100FA
:1001000012810C120189C00012811CC0E0B40A04E3
:10011000742B8010B40B04742D8009B40C04742A61
:100120008002742F128102120189C000743D128175
:1001300002D0F0D0E0C0F0B40A08D0F0D0E025F052
:100140008042B40B1CD0F0D0E0C395F04002803464
:10015000C0E0742D128102D0E0F475F00125F0802A
:1001600023B40C07D0F0D0E0A48019D0E0B400058F
:100170001201C680FED0E084C0F012019A7472129F
:100180008102D0E012019A80FE12811C75F00AA44F
:10019000F812811C28F812019A22F975F064C395AF
:1001A000F04017E975F06484C0E0128104D0E07576
:1001B000F064A4F5F0E9C395F0F9E975F00A84C498
:1001C00025F01281042274451281027452128102B8
:1001D0007452128102744F128102745212810222EF
:00000001FF
